{
  "contractName": "Election",
  "abi": [
    {
      "inputs": [
        {
          "internalType": "uint256",
          "name": "_votingDuration",
          "type": "uint256"
        }
      ],
      "payable": false,
      "stateMutability": "nonpayable",
      "type": "constructor"
    },
    {
      "anonymous": false,
      "inputs": [
        {
          "indexed": true,
          "internalType": "uint256",
          "name": "_candidateId",
          "type": "uint256"
        }
      ],
      "name": "votedEvent",
      "type": "event"
    },
    {
      "constant": true,
      "inputs": [
        {
          "internalType": "uint256",
          "name": "",
          "type": "uint256"
        }
      ],
      "name": "candidates",
      "outputs": [
        {
          "internalType": "uint256",
          "name": "id",
          "type": "uint256"
        },
        {
          "internalType": "string",
          "name": "name",
          "type": "string"
        },
        {
          "internalType": "uint256",
          "name": "voteCount",
          "type": "uint256"
        }
      ],
      "payable": false,
      "stateMutability": "view",
      "type": "function"
    },
    {
      "constant": true,
      "inputs": [],
      "name": "candidatesCount",
      "outputs": [
        {
          "internalType": "uint256",
          "name": "",
          "type": "uint256"
        }
      ],
      "payable": false,
      "stateMutability": "view",
      "type": "function"
    },
    {
      "constant": true,
      "inputs": [
        {
          "internalType": "address",
          "name": "",
          "type": "address"
        }
      ],
      "name": "voters",
      "outputs": [
        {
          "internalType": "bool",
          "name": "",
          "type": "bool"
        }
      ],
      "payable": false,
      "stateMutability": "view",
      "type": "function"
    },
    {
      "constant": true,
      "inputs": [],
      "name": "votingEndTime",
      "outputs": [
        {
          "internalType": "uint256",
          "name": "",
          "type": "uint256"
        }
      ],
      "payable": false,
      "stateMutability": "view",
      "type": "function"
    },
    {
      "constant": true,
      "inputs": [],
      "name": "votingStartTime",
      "outputs": [
        {
          "internalType": "uint256",
          "name": "",
          "type": "uint256"
        }
      ],
      "payable": false,
      "stateMutability": "view",
      "type": "function"
    },
    {
      "constant": false,
      "inputs": [
        {
          "internalType": "uint256",
          "name": "_candidateId",
          "type": "uint256"
        }
      ],
      "name": "vote",
      "outputs": [],
      "payable": false,
      "stateMutability": "nonpayable",
      "type": "function"
    }
  ],
  "bytecode": "0x608060405234801561001057600080fd5b506040516107b13803806107b18339818101604052602081101561003357600080fd5b81019080805190602001909291905050506100886040518060400160405280600b81526020017f43616e64696461746520310000000000000000000000000000000000000000008152506100e260201b60201c565b6100cc6040518060400160405280600b81526020017f43616e64696461746520320000000000000000000000000000000000000000008152506100e260201b60201c565b4260038190555080420160048190555050610203565b60026000815480929190600101919050555060405180606001604052806002548152602001828152602001600081525060016000600254815260200190815260200160002060008201518160000155602082015181600101908051906020019061014d92919061015e565b506040820151816002015590505050565b828054600181600116156101000203166002900490600052602060002090601f016020900481019282601f1061019f57805160ff19168380011785556101cd565b828001600101855582156101cd579182015b828111156101cc5782518255916020019190600101906101b1565b5b5090506101da91906101de565b5090565b61020091905b808211156101fc5760008160009055506001016101e4565b5090565b90565b61059f806102126000396000f3fe608060405234801561001057600080fd5b50600436106100625760003560e01c80630121b93f146100675780631ea736e0146100955780632019a608146100b35780632d35a8a2146100d15780633477ee2e146100ef578063a3ec138d146101a4575b600080fd5b6100936004803603602081101561007d57600080fd5b8101908080359060200190929190505050610200565b005b61009d610476565b6040518082815260200191505060405180910390f35b6100bb61047c565b6040518082815260200191505060405180910390f35b6100d9610482565b6040518082815260200191505060405180910390f35b61011b6004803603602081101561010557600080fd5b8101908080359060200190929190505050610488565b6040518084815260200180602001838152602001828103825284818151815260200191508051906020019080838360005b8381101561016757808201518184015260208101905061014c565b50505050905090810190601f1680156101945780820380516001836020036101000a031916815260200191505b5094505050505060405180910390f35b6101e6600480360360208110156101ba57600080fd5b81019080803573ffffffffffffffffffffffffffffffffffffffff16906020019092919050505061054a565b604051808215151515815260200191505060405180910390f35b600354421015801561021457506004544211155b610286576040517f08c379a000000000000000000000000000000000000000000000000000000000815260040180806020018281038252601b8152602001807f566f74696e6720706572696f64206973206e6f7420616374697665000000000081525060200191505060405180910390fd5b6000803373ffffffffffffffffffffffffffffffffffffffff1673ffffffffffffffffffffffffffffffffffffffff16815260200190815260200160002060009054906101000a900460ff1615610345576040517f08c379a00000000000000000000000000000000000000000000000000000000081526004018080602001828103825260168152602001807f596f75206861766520616c726561647920766f7465640000000000000000000081525060200191505060405180910390fd5b60008111801561035757506002548111155b6103c9576040517f08c379a00000000000000000000000000000000000000000000000000000000081526004018080602001828103825260118152602001807f496e76616c69642063616e64696461746500000000000000000000000000000081525060200191505060405180910390fd5b60016000803373ffffffffffffffffffffffffffffffffffffffff1673ffffffffffffffffffffffffffffffffffffffff16815260200190815260200160002060006101000a81548160ff0219169083151502179055506001600082815260200190815260200160002060020160008154809291906001019190505550807ffff3c900d938d21d0990d786e819f29b8d05c1ef587b462b939609625b684b1660405160405180910390a250565b60045481565b60035481565b60025481565b6001602052806000526040600020600091509050806000015490806001018054600181600116156101000203166002900480601f01602080910402602001604051908101604052809291908181526020018280546001816001161561010002031660029004801561053a5780601f1061050f5761010080835404028352916020019161053a565b820191906000526020600020905b81548152906001019060200180831161051d57829003601f168201915b5050505050908060020154905083565b60006020528060005260406000206000915054906101000a900460ff168156fea265627a7a723158200b276b674cae9df93673863da871a2ffbf6353eaaf1c3439414925c7cc68b47d64736f6c63430005100032",
  "source": "pragma solidity ^0.5.0;\n\ncontract Election {\n    // Model a Candidate\n    struct Candidate {\n        uint id;\n        string name;\n        uint voteCount;\n    }\n\n    // Store accounts that have voted\n    mapping(address => bool) public voters;\n\n    // Read/write candidates\n    mapping(uint => Candidate) public candidates;\n\n    // Store Candidates Count\n    uint public candidatesCount;\n\n    // Voting period\n    uint public votingStartTime;\n    uint public votingEndTime;\n\n    // Voted event\n    event votedEvent (\n        uint indexed _candidateId\n    );\n\n    // Constructor\n    constructor(uint _votingDuration) public {\n        addCandidate(\"Candidate 1\");\n        addCandidate(\"Candidate 2\");\n        votingStartTime = now;\n        votingEndTime = now + _votingDuration;\n    }\n\n    // Function to add candidate\n    function addCandidate(string memory _name) private {\n        candidatesCount ++;\n        candidates[candidatesCount] = Candidate(candidatesCount, _name, 0);\n    }\n\n    // Function to vote\n    function vote(uint _candidateId) public {\n        // Require that the voting period is active\n        require(now >= votingStartTime && now <= votingEndTime, \"Voting period is not active\");\n\n        // Require that they haven't voted before\n        require(!voters[msg.sender], \"You have already voted\");\n\n        // Require a valid candidate\n        require(_candidateId > 0 && _candidateId <= candidatesCount, \"Invalid candidate\");\n\n        // Record that voter has voted\n        voters[msg.sender] = true;\n\n        // Update candidate vote count\n        candidates[_candidateId].voteCount ++;\n\n        // Trigger voted event\n        emit votedEvent(_candidateId);\n    }\n}\n",
  "sourcePath": "/Users/muhammadumairshahid/Desktop/test/contracts/Election.sol",
  "compiler": {
    "name": "solc",
    "version": "0.5.16+commit.9c3226ce.Emscripten.clang"
  },
  "schemaVersion": "3.4.16",
  "updatedAt": "2024-07-16T15:35:46.932Z",
  "networkType": "ethereum",
  "devdoc": {
    "methods": {}
  },
  "userdoc": {
    "methods": {}
  }
}